:100000003EC04BC09AC049C06CC047C046C045C046
:1000100044C043C043C041C040C03FC03EC0DDC03B
:10002000DCC0DBC0DAC0DBC0DAC0D9C0D8C0D9C000
:10003000D8C0D7C0D6C0D7C0D6C0D5C0D4C0D5C010
:10004000D4C0D3C0D2C0E5C0E7C0E9C0EBC0DEC0B9
:10005000E3C0E5C0E7C0DAC0DCC0E1C0E3C0D6C0A1
:10006000D8C0DAC0DFC0D2C0D4C0D6C0D8C081C228
:1000700088C288C28AC28CC28EC290C292C2112427
:100080001FBECFEDCDBF10E0A0E6B0E001C01D92D5
:10009000AB37B107E1F789D2FFC2B2CF1F920F92FF
:1000A0000FB60F9211242F933F934F935F936F934B
:1000B0007F938F939F93AF93BF93EF93FF9382D0E0
:1000C000FF91EF91BF91AF919F918F917F916F9130
:1000D0005F914F913F912F910F900FBE0F901F9006
:1000E00018951F920F920FB60F9211242F933F93E2
:1000F0004F935F936F937F938F939F93AF93BF9330
:10010000EF93FF938091620090916300019690932A
:100110006300809362004DD0FF91EF91BF91AF914A
:100120009F918F917F916F915F914F913F912F910F
:100130000F900FBE0F901F9018951F920F920FB641
:100140000F9211240F900FBE0F901F901895809161
:100150006000811106C0B5992AC01092610081E04B
:1001600013C0813051F480916100853000F1B59960
:100170001EC01092610082E007C0823041F4B59B3E
:1001800016C01092610083E08093600010C083303D
:1001900061F480916100853050F0B59B08C01092E9
:1001A00061001092600081E008951092600080E08C
:1001B0000895809161008F5F809361000895809120
:1001C0006000089517BA18BAE0917800F0E0E431C1
:1001D000F10560F4E15FFF4F0994BA9A07C0BB9A3A
:1001E00005C0BC9A03C0B99A01C0B89AE0917800E2
:1001F000AE2FB0E0AC59BF4F8C918130B1F4F0E03C
:10020000E431F10590F4ED5DFF4F0994BA9A84E072
:100210000BC0BB9A88E008C0BC9A80E105C0B99ABF
:1002200082E002C0B89A81E088BB809178008F5F3D
:10023000843118F48093780008951092780008951E
:1002400019BE80E285BB8BBF85B7877E806185BF85
:1002500085B7806285BF85B7982F94688B7F80684B
:10026000F89495BF85BF78948895F89485B78F7D6D
:1002700085BF84E189BF1BBE7894089520E030E0FB
:10028000F901EC59FF4F80832F5F3F4F2431310537
:10029000B9F70895F89480E0F1DF109263001092AE
:1002A000620078940895F89481E0E8DF109263008A
:1002B0001092620078940895F894409162005091F1
:1002C00063009C01220F331F4217530728F010923E
:1002D0006300109262000BC02091620030916300B5
:1002E0002817390710F081E001C080E0C7DF78945B
:1002F0000895CF93DF93EC01F89480E0BFDF209165
:10030000620030916300CE01880F991F28173907CA
:1003100028F010926300109262001EC0809162006B
:10032000909163008C179D0760F080E090E021E0E1
:10033000FC01EC59FF4F2083029684319105C1F7EF
:100340000BC081E090E021E0FC01EC59FF4F2083DD
:10035000029685319105C1F77894DF91CF91089588
:10036000CF939C01F894E0916200F091630066E104
:1003700070E04DD1E817F90728F010926300109251
:10038000620044C0E0916200F0916300C9016BE03B
:1003900070E03DD1E817F907E8F080916200909194
:1003A0006300B90152D1C62FCB5081E067DF40E036
:1003B00024E130E0842F90E0FC01EC59FF4F1082E3
:1003C000F901E81BF90BEC59FF4F10824F5FC4177E
:1003D00088F71CC08091620090916300B90135D10B
:1003E000C62F80E04BDF40E051E024E130E0842F75
:1003F00090E0FC01EC59FF4F5083F901E81BF90B29
:10040000EC59FF4F50834F5FC41788F77894CF9112
:100410000895CF93DF93EC01F89480E02FDF2091D3
:10042000620030916300CE01880F991F880F991FD9
:100430002817390728F010926300109262001CC040
:100440008091620090916300BE01FFD07727FB018D
:10045000EC59FF4F81E08083FB01E859FF4F808317
:10046000FB01E459FF4F8083FB01E059FF4F80837C
:10047000FB01EC58FF4F80837894DF91CF91089572
:10048000CF93DF93EC01F89480E0F8DE8091620076
:10049000909163008C179D0748F0109263001092B2
:1004A0006200809179008F5F8093790020917900BC
:1004B000822F64E1BED0E92FF0E0EC59FF4F41E01C
:1004C0004083E22FF0E0CF01019624E130E0B90152
:1004D000D0D08C599F4FDC014C93CF010296B901CB
:1004E000C8D08C599F4FFC0140837894DF91CF9105
:1004F0000895CF93DF93EC01F89481E0BFDE809103
:100500006200909163008C179D0748F01092630081
:100510001092620080917A008F5F80937A00209120
:100520007A00822F64E185D0E92FF0E0EC59FF4F8B
:100530001082E22FF0E0CF01019624E130E0B90112
:1005400098D08C599F4FDC011C92CF010296B901C3
:1005500090D08C599F4FFC0110827894DF91CF91FD
:100560000895E82FF0E0E830F105F0F4E95CFF4F82
:10057000099490DE88B3807E88BB21DE811114C08F
:100580005FCE91CE8EEE92E097CE8CE291E0B1CE2E
:100590008CE291E0E5CE8CE291E03BCF8CE291E001
:1005A0006FCF8CE291E0A5CF08958FE187BB18BA99
:1005B00014BA479A379882E08ABD83E083BF88E403
:1005C00089BD12BE87EC80BF1CBC8DE78DBD1FBCF2
:1005D00084E189BF789480E051DEC0E0D0E011E092
:1005E0002091620030916300C217D307C9F3812FB5
:1005F000B8DFC0916200D0916300A9DD882381F348
:100600001F5F17701092630010926200E9CF5527A8
:10061000002480FF02C0060E571F660F771F61156A
:10062000710521F096958795009799F7952F802D64
:100630000895991B79E004C0991F961708F0961B3E
:10064000881F7A95C9F780950895AA1BBB1B51E1B5
:1006500007C0AA1FBB1FA617B70710F0A61BB70B32
:10066000881F991F5A95A9F780959095BC01CD01D7
:10067000089597FB072E16F4009406D077FD08D056
:10068000E4DF07FC05D03EF4909581959F4F0895D7
:0C069000709561957F4F0895F894FFCF9E
:00000001FF
